:100000000C9434000C943E000C943E000C943E0082
:100010000C943E000C943E000C943E000C943E0068
:100020000C943E000C943E000C943E000C943E0058
:100030000C943E000C943E000C943E000C943E0048
:100040000C943E000C943E000C943E000C943E0038
:100050000C943E000C943E000C943E000C943E0028
:100060000C943E000C943E0011241FBECFEFD8E04C
:10007000DEBFCDBF0E944B010C945A010C940000CE
:10008000209A52985A9A53985B9A4A9902C04B9B6D
:1000900011C0289820E030E040E951E0CA01019702
:1000A000F1F72F5F3F4F283C3105C1F720E030E0EA
:1000B000C9010895289A80E49FE10197F1F721E0B2
:1000C00030E0C901089580E480937C0087E8809344
:1000D0007A00089590917C00987F90937C008770BF
:1000E00080937C0080917A00806480937A00809174
:1000F0007A0084FFFCCF80917A00806180937A003F
:100100002091780030917900C901089580E48093AE
:100110007C0087E880937A0080917C00887F8093C0
:100120007C0010927C0080917A00806480937A0039
:1001300080917A0084FFFCCF80917A008061809367
:100140007A002091780030917900C9010895BC01AE
:1001500080918000836880938000809181008B6013
:1001600080938100219A80E49FE10197F1F7693C37
:10017000710590F48CEC90E0909389008093880056
:1001800020E030E040E951E0CA010197F1F72F5F2C
:100190003F4F283C3105C1F7CB01825D904083522F
:1001A0009140B8F124E130E0CB018E5F91408F3B6C
:1001B0009105A0F48DEC92E09093890080938800E3
:1001C00020E030E040E951E0CA010197F1F72F5FEC
:1001D0003F4F283C3105C1F72DE130E0665C7240AD
:1001E0006B537140A0F48DEC93E090938900809361
:1001F000880020E030E040E951E0CA010197F1F7C2
:100200002F5F3F4F283C3105C1F721E230E0C901A3
:1002100008958AE991E0909389008093880020E016
:1002200030E040E951E0CA010197F1F72F5F3F4FFD
:10023000283C3105C1F729E130E0B6CF9093C500E5
:100240008093C40086E48093C20088ED8093C1004F
:1002500008958091C00087FFFCCF8091C60008956B
:10026000982F8091C00085FFFCCF9093C600089521
:10027000982F1092C50087E68093C40086E480938F
:10028000C20088ED8093C1008091C00085FFFCCF43
:100290009093C60008950E9440000197E1F70E94E4
:1002A00086000E94A7000E9438010E94400001972A
:0802B00091F7F5CFF894FFCFA0
:00000001FF
